{
  "_format": "hh-sol-artifact-1",
  "contractName": "DegenToken",
  "sourceName": "contracts/DegenToken.sol",
  "abi": [
    {
      "inputs": [],
      "stateMutability": "nonpayable",
      "type": "constructor"
    },
    {
      "anonymous": false,
      "inputs": [
        {
          "indexed": true,
          "internalType": "address",
          "name": "owner",
          "type": "address"
        },
        {
          "indexed": true,
          "internalType": "address",
          "name": "spender",
          "type": "address"
        },
        {
          "indexed": false,
          "internalType": "uint256",
          "name": "value",
          "type": "uint256"
        }
      ],
      "name": "Approval",
      "type": "event"
    },
    {
      "anonymous": false,
      "inputs": [
        {
          "indexed": true,
          "internalType": "address",
          "name": "previousOwner",
          "type": "address"
        },
        {
          "indexed": true,
          "internalType": "address",
          "name": "newOwner",
          "type": "address"
        }
      ],
      "name": "OwnershipTransferred",
      "type": "event"
    },
    {
      "anonymous": false,
      "inputs": [
        {
          "indexed": true,
          "internalType": "address",
          "name": "from",
          "type": "address"
        },
        {
          "indexed": true,
          "internalType": "address",
          "name": "to",
          "type": "address"
        },
        {
          "indexed": false,
          "internalType": "uint256",
          "name": "value",
          "type": "uint256"
        }
      ],
      "name": "Transfer",
      "type": "event"
    },
    {
      "inputs": [
        {
          "internalType": "address",
          "name": "_receiver",
          "type": "address"
        },
        {
          "internalType": "uint256",
          "name": "amount",
          "type": "uint256"
        }
      ],
      "name": "TransferToken",
      "outputs": [],
      "stateMutability": "nonpayable",
      "type": "function"
    },
    {
      "inputs": [
        {
          "internalType": "address",
          "name": "owner",
          "type": "address"
        },
        {
          "internalType": "address",
          "name": "spender",
          "type": "address"
        }
      ],
      "name": "allowance",
      "outputs": [
        {
          "internalType": "uint256",
          "name": "",
          "type": "uint256"
        }
      ],
      "stateMutability": "view",
      "type": "function"
    },
    {
      "inputs": [
        {
          "internalType": "address",
          "name": "spender",
          "type": "address"
        },
        {
          "internalType": "uint256",
          "name": "amount",
          "type": "uint256"
        }
      ],
      "name": "approve",
      "outputs": [
        {
          "internalType": "bool",
          "name": "",
          "type": "bool"
        }
      ],
      "stateMutability": "nonpayable",
      "type": "function"
    },
    {
      "inputs": [
        {
          "internalType": "address",
          "name": "account",
          "type": "address"
        }
      ],
      "name": "balanceOf",
      "outputs": [
        {
          "internalType": "uint256",
          "name": "",
          "type": "uint256"
        }
      ],
      "stateMutability": "view",
      "type": "function"
    },
    {
      "inputs": [
        {
          "internalType": "uint256",
          "name": "amount",
          "type": "uint256"
        }
      ],
      "name": "burn",
      "outputs": [],
      "stateMutability": "nonpayable",
      "type": "function"
    },
    {
      "inputs": [
        {
          "internalType": "uint256",
          "name": "",
          "type": "uint256"
        }
      ],
      "name": "collectables",
      "outputs": [
        {
          "internalType": "string",
          "name": "name",
          "type": "string"
        },
        {
          "internalType": "uint256",
          "name": "redeemAmount",
          "type": "uint256"
        }
      ],
      "stateMutability": "view",
      "type": "function"
    },
    {
      "inputs": [],
      "name": "decimals",
      "outputs": [
        {
          "internalType": "uint8",
          "name": "",
          "type": "uint8"
        }
      ],
      "stateMutability": "view",
      "type": "function"
    },
    {
      "inputs": [
        {
          "internalType": "address",
          "name": "spender",
          "type": "address"
        },
        {
          "internalType": "uint256",
          "name": "subtractedValue",
          "type": "uint256"
        }
      ],
      "name": "decreaseAllowance",
      "outputs": [
        {
          "internalType": "bool",
          "name": "",
          "type": "bool"
        }
      ],
      "stateMutability": "nonpayable",
      "type": "function"
    },
    {
      "inputs": [],
      "name": "getBalance",
      "outputs": [
        {
          "internalType": "uint256",
          "name": "",
          "type": "uint256"
        }
      ],
      "stateMutability": "view",
      "type": "function"
    },
    {
      "inputs": [
        {
          "internalType": "uint256",
          "name": "_collectableId",
          "type": "uint256"
        }
      ],
      "name": "getRedeemedICollectable",
      "outputs": [
        {
          "internalType": "uint256",
          "name": "",
          "type": "uint256"
        }
      ],
      "stateMutability": "view",
      "type": "function"
    },
    {
      "inputs": [
        {
          "internalType": "address",
          "name": "spender",
          "type": "address"
        },
        {
          "internalType": "uint256",
          "name": "addedValue",
          "type": "uint256"
        }
      ],
      "name": "increaseAllowance",
      "outputs": [
        {
          "internalType": "bool",
          "name": "",
          "type": "bool"
        }
      ],
      "stateMutability": "nonpayable",
      "type": "function"
    },
    {
      "inputs": [
        {
          "internalType": "address",
          "name": "to",
          "type": "address"
        },
        {
          "internalType": "uint256",
          "name": "amount",
          "type": "uint256"
        }
      ],
      "name": "mint",
      "outputs": [],
      "stateMutability": "nonpayable",
      "type": "function"
    },
    {
      "inputs": [],
      "name": "name",
      "outputs": [
        {
          "internalType": "string",
          "name": "",
          "type": "string"
        }
      ],
      "stateMutability": "view",
      "type": "function"
    },
    {
      "inputs": [],
      "name": "owner",
      "outputs": [
        {
          "internalType": "address",
          "name": "",
          "type": "address"
        }
      ],
      "stateMutability": "view",
      "type": "function"
    },
    {
      "inputs": [
        {
          "internalType": "uint256",
          "name": "_collectableId",
          "type": "uint256"
        }
      ],
      "name": "redeemToken",
      "outputs": [],
      "stateMutability": "nonpayable",
      "type": "function"
    },
    {
      "inputs": [
        {
          "internalType": "address",
          "name": "",
          "type": "address"
        },
        {
          "internalType": "uint256",
          "name": "",
          "type": "uint256"
        }
      ],
      "name": "redeemedICollectable",
      "outputs": [
        {
          "internalType": "uint256",
          "name": "",
          "type": "uint256"
        }
      ],
      "stateMutability": "view",
      "type": "function"
    },
    {
      "inputs": [],
      "name": "renounceOwnership",
      "outputs": [],
      "stateMutability": "nonpayable",
      "type": "function"
    },
    {
      "inputs": [],
      "name": "showAllCollectables",
      "outputs": [
        {
          "components": [
            {
              "internalType": "string",
              "name": "name",
              "type": "string"
            },
            {
              "internalType": "uint256",
              "name": "redeemAmount",
              "type": "uint256"
            }
          ],
          "internalType": "struct DegenToken.Collectable[]",
          "name": "",
          "type": "tuple[]"
        }
      ],
      "stateMutability": "view",
      "type": "function"
    },
    {
      "inputs": [],
      "name": "symbol",
      "outputs": [
        {
          "internalType": "string",
          "name": "",
          "type": "string"
        }
      ],
      "stateMutability": "view",
      "type": "function"
    },
    {
      "inputs": [],
      "name": "totalSupply",
      "outputs": [
        {
          "internalType": "uint256",
          "name": "",
          "type": "uint256"
        }
      ],
      "stateMutability": "view",
      "type": "function"
    },
    {
      "inputs": [
        {
          "internalType": "address",
          "name": "to",
          "type": "address"
        },
        {
          "internalType": "uint256",
          "name": "amount",
          "type": "uint256"
        }
      ],
      "name": "transfer",
      "outputs": [
        {
          "internalType": "bool",
          "name": "",
          "type": "bool"
        }
      ],
      "stateMutability": "nonpayable",
      "type": "function"
    },
    {
      "inputs": [
        {
          "internalType": "address",
          "name": "from",
          "type": "address"
        },
        {
          "internalType": "address",
          "name": "to",
          "type": "address"
        },
        {
          "internalType": "uint256",
          "name": "amount",
          "type": "uint256"
        }
      ],
      "name": "transferFrom",
      "outputs": [
        {
          "internalType": "bool",
          "name": "",
          "type": "bool"
        }
      ],
      "stateMutability": "nonpayable",
      "type": "function"
    },
    {
      "inputs": [
        {
          "internalType": "address",
          "name": "newOwner",
          "type": "address"
        }
      ],
      "name": "transferOwnership",
      "outputs": [],
      "stateMutability": "nonpayable",
      "type": "function"
    }
  ],
  "bytecode": "0x60806040523480156200001157600080fd5b506040518060400160405280600581526020017f446567656e0000000000000000000000000000000000000000000000000000008152506040518060400160405280600381526020017f44474e000000000000000000000000000000000000000000000000000000000081525081600390816200008f919062000625565b508060049081620000a1919062000625565b505050620000c4620000b8620002dd60201b60201c565b620002e560201b60201c565b60405180604001604052806040518060400160405280601181526020017f4d616e646172696e20426f6f6b204e465400000000000000000000000000000081525081526020016101f4815250600660006001815260200190815260200160002060008201518160000190816200013b919062000625565b506020820151816001015590505060405180604001604052806040518060400160405280601181526020017f53616e736b72697420426f6f6b204e465400000000000000000000000000000081525081526020016107d081525060066000600281526020019081526020016000206000820151816000019081620001c0919062000625565b506020820151816001015590505060405180604001604052806040518060400160405280600f81526020017f4e6570616c6920426f6f6b204e46540000000000000000000000000000000000815250815260200160648152506006600060038152602001908152602001600020600082015181600001908162000244919062000625565b506020820151816001015590505060405180604001604052806040518060400160405280600e81526020017f437a65636820426f6f6b204e46540000000000000000000000000000000000008152508152602001610bb881525060066000600481526020019081526020016000206000820151816000019081620002c9919062000625565b50602082015181600101559050506200070c565b600033905090565b6000600560009054906101000a900473ffffffffffffffffffffffffffffffffffffffff16905081600560006101000a81548173ffffffffffffffffffffffffffffffffffffffff021916908373ffffffffffffffffffffffffffffffffffffffff1602179055508173ffffffffffffffffffffffffffffffffffffffff168173ffffffffffffffffffffffffffffffffffffffff167f8be0079c531659141344cd1fd0a4f28419497f9722a3daafe3b4186f6b6457e060405160405180910390a35050565b600081519050919050565b7f4e487b7100000000000000000000000000000000000000000000000000000000600052604160045260246000fd5b7f4e487b7100000000000000000000000000000000000000000000000000000000600052602260045260246000fd5b600060028204905060018216806200042d57607f821691505b602082108103620004435762000442620003e5565b5b50919050565b60008190508160005260206000209050919050565b60006020601f8301049050919050565b600082821b905092915050565b600060088302620004ad7fffffffffffffffffffffffffffffffffffffffffffffffffffffffffffffffff826200046e565b620004b986836200046e565b95508019841693508086168417925050509392505050565b6000819050919050565b6000819050919050565b60006200050662000500620004fa84620004d1565b620004db565b620004d1565b9050919050565b6000819050919050565b6200052283620004e5565b6200053a62000531826200050d565b8484546200047b565b825550505050565b600090565b6200055162000542565b6200055e81848462000517565b505050565b5b8181101562000586576200057a60008262000547565b60018101905062000564565b5050565b601f821115620005d5576200059f8162000449565b620005aa846200045e565b81016020851015620005ba578190505b620005d2620005c9856200045e565b83018262000563565b50505b505050565b600082821c905092915050565b6000620005fa60001984600802620005da565b1980831691505092915050565b6000620006158383620005e7565b9150826002028217905092915050565b6200063082620003ab565b67ffffffffffffffff8111156200064c576200064b620003b6565b5b62000658825462000414565b620006658282856200058a565b600060209050601f8311600181146200069d576000841562000688578287015190505b62000694858262000607565b86555062000704565b601f198416620006ad8662000449565b60005b82811015620006d757848901518255600182019150602085019450602081019050620006b0565b86831015620006f75784890151620006f3601f891682620005e7565b8355505b6001600288020188555050505b505050505050565b61266b806200071c6000396000f3fe608060405234801561001057600080fd5b506004361061014d5760003560e01c806342966c68116100c35780639dd3045b1161007c5780639dd3045b146103a3578063a457c2d7146103bf578063a9059cbb146103ef578063d4f6c9261461041f578063dd62ed3e1461044f578063f2fde38b1461047f5761014d565b806342966c68146102e057806370a08231146102fc578063715018a61461032c5780638da5cb5b1461033657806395d89b4114610354578063960466b1146103725761014d565b806318160ddd1161011557806318160ddd146101f85780631e3be8721461021657806323b872dd14610246578063313ce56714610276578063395093511461029457806340c10f19146102c45761014d565b8063013054c21461015257806306fdde031461016e57806308f505631461018c578063095ea7b3146101aa57806312065fe0146101da575b600080fd5b61016c60048036038101906101679190611768565b61049b565b005b610176610622565b6040516101839190611825565b60405180910390f35b6101946106b4565b6040516101a1919061199f565b60405180910390f35b6101c460048036038101906101bf9190611a1f565b61081d565b6040516101d19190611a7a565b60405180910390f35b6101e2610840565b6040516101ef9190611aa4565b60405180910390f35b610200610850565b60405161020d9190611aa4565b60405180910390f35b610230600480360381019061022b9190611768565b61085a565b60405161023d9190611aa4565b60405180910390f35b610260600480360381019061025b9190611abf565b610903565b60405161026d9190611a7a565b60405180910390f35b61027e610932565b60405161028b9190611b2e565b60405180910390f35b6102ae60048036038101906102a99190611a1f565b610937565b6040516102bb9190611a7a565b60405180910390f35b6102de60048036038101906102d99190611a1f565b61096e565b005b6102fa60048036038101906102f59190611768565b610984565b005b61031660048036038101906103119190611b49565b6109dc565b6040516103239190611aa4565b60405180910390f35b610334610a24565b005b61033e610a38565b60405161034b9190611b85565b60405180910390f35b61035c610a62565b6040516103699190611825565b60405180910390f35b61038c60048036038101906103879190611768565b610af4565b60405161039a929190611ba0565b60405180910390f35b6103bd60048036038101906103b89190611a1f565b610ba0565b005b6103d960048036038101906103d49190611a1f565b610c06565b6040516103e69190611a7a565b60405180910390f35b61040960048036038101906104049190611a1f565b610c7d565b6040516104169190611a7a565b60405180910390f35b61043960048036038101906104349190611a1f565b610ca0565b6040516104469190611aa4565b60405180910390f35b61046960048036038101906104649190611bd0565b610cc5565b6040516104769190611aa4565b60405180910390f35b61049960048036038101906104949190611b49565b610d4c565b005b6000600660008381526020019081526020016000206040518060400160405290816000820180546104cb90611c3f565b80601f01602080910402602001604051908101604052809291908181526020018280546104f790611c3f565b80156105445780601f1061051957610100808354040283529160200191610544565b820191906000526020600020905b81548152906001019060200180831161052757829003601f168201915b5050505050815260200160018201548152505090508060200151610567336109dc565b10156105a8576040517f08c379a000000000000000000000000000000000000000000000000000000000815260040161059f90611ce2565b60405180910390fd5b6001600760003373ffffffffffffffffffffffffffffffffffffffff1673ffffffffffffffffffffffffffffffffffffffff168152602001908152602001600020600084815260200190815260200160002060008282546106099190611d31565b9250508190555061061e338260200151610dcf565b5050565b60606003805461063190611c3f565b80601f016020809104026020016040519081016040528092919081815260200182805461065d90611c3f565b80156106aa5780601f1061067f576101008083540402835291602001916106aa565b820191906000526020600020905b81548152906001019060200180831161068d57829003601f168201915b5050505050905090565b60606000600467ffffffffffffffff8111156106d3576106d2611d65565b5b60405190808252806020026020018201604052801561070c57816020015b6106f9611713565b8152602001906001900390816106f15790505b5090506000600190505b60048111610815576006600082815260200190815260200160002060405180604001604052908160008201805461074c90611c3f565b80601f016020809104026020016040519081016040528092919081815260200182805461077890611c3f565b80156107c55780601f1061079a576101008083540402835291602001916107c5565b820191906000526020600020905b8154815290600101906020018083116107a857829003601f168201915b50505050508152602001600182015481525050826001836107e69190611d94565b815181106107f7576107f6611dc8565b5b6020026020010181905250808061080d90611df7565b915050610716565b508091505090565b600080610828610f9c565b9050610835818585610fa4565b600191505092915050565b600061084b336109dc565b905090565b6000600254905090565b6000808211801561086c575060048211155b6108ab576040517f08c379a00000000000000000000000000000000000000000000000000000000081526004016108a290611e8b565b60405180910390fd5b600760003373ffffffffffffffffffffffffffffffffffffffff1673ffffffffffffffffffffffffffffffffffffffff1681526020019081526020016000206000838152602001908152602001600020549050919050565b60008061090e610f9c565b905061091b85828561116d565b6109268585856111f9565b60019150509392505050565b600090565b600080610942610f9c565b90506109638185856109548589610cc5565b61095e9190611d31565b610fa4565b600191505092915050565b61097661146f565b61098082826114ed565b5050565b8061098e336109dc565b10156109cf576040517f08c379a00000000000000000000000000000000000000000000000000000000081526004016109c690611f1d565b60405180910390fd5b6109d93382610dcf565b50565b60008060008373ffffffffffffffffffffffffffffffffffffffff1673ffffffffffffffffffffffffffffffffffffffff168152602001908152602001600020549050919050565b610a2c61146f565b610a366000611643565b565b6000600560009054906101000a900473ffffffffffffffffffffffffffffffffffffffff16905090565b606060048054610a7190611c3f565b80601f0160208091040260200160405190810160405280929190818152602001828054610a9d90611c3f565b8015610aea5780601f10610abf57610100808354040283529160200191610aea565b820191906000526020600020905b815481529060010190602001808311610acd57829003601f168201915b5050505050905090565b6006602052806000526040600020600091509050806000018054610b1790611c3f565b80601f0160208091040260200160405190810160405280929190818152602001828054610b4390611c3f565b8015610b905780601f10610b6557610100808354040283529160200191610b90565b820191906000526020600020905b815481529060010190602001808311610b7357829003601f168201915b5050505050908060010154905082565b80610baa336109dc565b1015610beb576040517f08c379a0000000000000000000000000000000000000000000000000000000008152600401610be290611faf565b60405180910390fd5b610bf5338261081d565b50610c01338383610903565b505050565b600080610c11610f9c565b90506000610c1f8286610cc5565b905083811015610c64576040517f08c379a0000000000000000000000000000000000000000000000000000000008152600401610c5b90612041565b60405180910390fd5b610c718286868403610fa4565b60019250505092915050565b600080610c88610f9c565b9050610c958185856111f9565b600191505092915050565b6007602052816000526040600020602052806000526040600020600091509150505481565b6000600160008473ffffffffffffffffffffffffffffffffffffffff1673ffffffffffffffffffffffffffffffffffffffff16815260200190815260200160002060008373ffffffffffffffffffffffffffffffffffffffff1673ffffffffffffffffffffffffffffffffffffffff16815260200190815260200160002054905092915050565b610d5461146f565b600073ffffffffffffffffffffffffffffffffffffffff168173ffffffffffffffffffffffffffffffffffffffff1603610dc3576040517f08c379a0000000000000000000000000000000000000000000000000000000008152600401610dba906120d3565b60405180910390fd5b610dcc81611643565b50565b600073ffffffffffffffffffffffffffffffffffffffff168273ffffffffffffffffffffffffffffffffffffffff1603610e3e576040517f08c379a0000000000000000000000000000000000000000000000000000000008152600401610e3590612165565b60405180910390fd5b610e4a82600083611709565b60008060008473ffffffffffffffffffffffffffffffffffffffff1673ffffffffffffffffffffffffffffffffffffffff16815260200190815260200160002054905081811015610ed0576040517f08c379a0000000000000000000000000000000000000000000000000000000008152600401610ec7906121f7565b60405180910390fd5b8181036000808573ffffffffffffffffffffffffffffffffffffffff1673ffffffffffffffffffffffffffffffffffffffff1681526020019081526020016000208190555081600260008282540392505081905550600073ffffffffffffffffffffffffffffffffffffffff168373ffffffffffffffffffffffffffffffffffffffff167fddf252ad1be2c89b69c2b068fc378daa952ba7f163c4a11628f55a4df523b3ef84604051610f839190611aa4565b60405180910390a3610f978360008461170e565b505050565b600033905090565b600073ffffffffffffffffffffffffffffffffffffffff168373ffffffffffffffffffffffffffffffffffffffff1603611013576040517f08c379a000000000000000000000000000000000000000000000000000000000815260040161100a90612289565b60405180910390fd5b600073ffffffffffffffffffffffffffffffffffffffff168273ffffffffffffffffffffffffffffffffffffffff1603611082576040517f08c379a00000000000000000000000000000000000000000000000000000000081526004016110799061231b565b60405180910390fd5b80600160008573ffffffffffffffffffffffffffffffffffffffff1673ffffffffffffffffffffffffffffffffffffffff16815260200190815260200160002060008473ffffffffffffffffffffffffffffffffffffffff1673ffffffffffffffffffffffffffffffffffffffff168152602001908152602001600020819055508173ffffffffffffffffffffffffffffffffffffffff168373ffffffffffffffffffffffffffffffffffffffff167f8c5be1e5ebec7d5bd14f71427d1e84f3dd0314c0f7b2291e5b200ac8c7c3b925836040516111609190611aa4565b60405180910390a3505050565b60006111798484610cc5565b90507fffffffffffffffffffffffffffffffffffffffffffffffffffffffffffffffff81146111f357818110156111e5576040517f08c379a00000000000000000000000000000000000000000000000000000000081526004016111dc90612387565b60405180910390fd5b6111f28484848403610fa4565b5b50505050565b600073ffffffffffffffffffffffffffffffffffffffff168373ffffffffffffffffffffffffffffffffffffffff1603611268576040517f08c379a000000000000000000000000000000000000000000000000000000000815260040161125f90612419565b60405180910390fd5b600073ffffffffffffffffffffffffffffffffffffffff168273ffffffffffffffffffffffffffffffffffffffff16036112d7576040517f08c379a00000000000000000000000000000000000000000000000000000000081526004016112ce906124ab565b60405180910390fd5b6112e2838383611709565b60008060008573ffffffffffffffffffffffffffffffffffffffff1673ffffffffffffffffffffffffffffffffffffffff16815260200190815260200160002054905081811015611368576040517f08c379a000000000000000000000000000000000000000000000000000000000815260040161135f9061253d565b60405180910390fd5b8181036000808673ffffffffffffffffffffffffffffffffffffffff1673ffffffffffffffffffffffffffffffffffffffff16815260200190815260200160002081905550816000808573ffffffffffffffffffffffffffffffffffffffff1673ffffffffffffffffffffffffffffffffffffffff168152602001908152602001600020600082825401925050819055508273ffffffffffffffffffffffffffffffffffffffff168473ffffffffffffffffffffffffffffffffffffffff167fddf252ad1be2c89b69c2b068fc378daa952ba7f163c4a11628f55a4df523b3ef846040516114569190611aa4565b60405180910390a361146984848461170e565b50505050565b611477610f9c565b73ffffffffffffffffffffffffffffffffffffffff16611495610a38565b73ffffffffffffffffffffffffffffffffffffffff16146114eb576040517f08c379a00000000000000000000000000000000000000000000000000000000081526004016114e2906125a9565b60405180910390fd5b565b600073ffffffffffffffffffffffffffffffffffffffff168273ffffffffffffffffffffffffffffffffffffffff160361155c576040517f08c379a000000000000000000000000000000000000000000000000000000000815260040161155390612615565b60405180910390fd5b61156860008383611709565b806002600082825461157a9190611d31565b92505081905550806000808473ffffffffffffffffffffffffffffffffffffffff1673ffffffffffffffffffffffffffffffffffffffff168152602001908152602001600020600082825401925050819055508173ffffffffffffffffffffffffffffffffffffffff16600073ffffffffffffffffffffffffffffffffffffffff167fddf252ad1be2c89b69c2b068fc378daa952ba7f163c4a11628f55a4df523b3ef8360405161162b9190611aa4565b60405180910390a361163f6000838361170e565b5050565b6000600560009054906101000a900473ffffffffffffffffffffffffffffffffffffffff16905081600560006101000a81548173ffffffffffffffffffffffffffffffffffffffff021916908373ffffffffffffffffffffffffffffffffffffffff1602179055508173ffffffffffffffffffffffffffffffffffffffff168173ffffffffffffffffffffffffffffffffffffffff167f8be0079c531659141344cd1fd0a4f28419497f9722a3daafe3b4186f6b6457e060405160405180910390a35050565b505050565b505050565b604051806040016040528060608152602001600081525090565b600080fd5b6000819050919050565b61174581611732565b811461175057600080fd5b50565b6000813590506117628161173c565b92915050565b60006020828403121561177e5761177d61172d565b5b600061178c84828501611753565b91505092915050565b600081519050919050565b600082825260208201905092915050565b60005b838110156117cf5780820151818401526020810190506117b4565b60008484015250505050565b6000601f19601f8301169050919050565b60006117f782611795565b61180181856117a0565b93506118118185602086016117b1565b61181a816117db565b840191505092915050565b6000602082019050818103600083015261183f81846117ec565b905092915050565b600081519050919050565b600082825260208201905092915050565b6000819050602082019050919050565b600082825260208201905092915050565b600061188f82611795565b6118998185611873565b93506118a98185602086016117b1565b6118b2816117db565b840191505092915050565b6118c681611732565b82525050565b600060408301600083015184820360008601526118e98282611884565b91505060208301516118fe60208601826118bd565b508091505092915050565b600061191583836118cc565b905092915050565b6000602082019050919050565b600061193582611847565b61193f8185611852565b93508360208202850161195185611863565b8060005b8581101561198d578484038952815161196e8582611909565b94506119798361191d565b925060208a01995050600181019050611955565b50829750879550505050505092915050565b600060208201905081810360008301526119b9818461192a565b905092915050565b600073ffffffffffffffffffffffffffffffffffffffff82169050919050565b60006119ec826119c1565b9050919050565b6119fc816119e1565b8114611a0757600080fd5b50565b600081359050611a19816119f3565b92915050565b60008060408385031215611a3657611a3561172d565b5b6000611a4485828601611a0a565b9250506020611a5585828601611753565b9150509250929050565b60008115159050919050565b611a7481611a5f565b82525050565b6000602082019050611a8f6000830184611a6b565b92915050565b611a9e81611732565b82525050565b6000602082019050611ab96000830184611a95565b92915050565b600080600060608486031215611ad857611ad761172d565b5b6000611ae686828701611a0a565b9350506020611af786828701611a0a565b9250506040611b0886828701611753565b9150509250925092565b600060ff82169050919050565b611b2881611b12565b82525050565b6000602082019050611b436000830184611b1f565b92915050565b600060208284031215611b5f57611b5e61172d565b5b6000611b6d84828501611a0a565b91505092915050565b611b7f816119e1565b82525050565b6000602082019050611b9a6000830184611b76565b92915050565b60006040820190508181036000830152611bba81856117ec565b9050611bc96020830184611a95565b9392505050565b60008060408385031215611be757611be661172d565b5b6000611bf585828601611a0a565b9250506020611c0685828601611a0a565b9150509250929050565b7f4e487b7100000000000000000000000000000000000000000000000000000000600052602260045260246000fd5b60006002820490506001821680611c5757607f821691505b602082108103611c6a57611c69611c10565b5b50919050565b7f596f7520646f6e2774206861766520656e6f75676820746f6b656e20746f207260008201527f656465656d207468697320636f6c6c65637461626c6500000000000000000000602082015250565b6000611ccc6036836117a0565b9150611cd782611c70565b604082019050919050565b60006020820190508181036000830152611cfb81611cbf565b9050919050565b7f4e487b7100000000000000000000000000000000000000000000000000000000600052601160045260246000fd5b6000611d3c82611732565b9150611d4783611732565b9250828201905080821115611d5f57611d5e611d02565b5b92915050565b7f4e487b7100000000000000000000000000000000000000000000000000000000600052604160045260246000fd5b6000611d9f82611732565b9150611daa83611732565b9250828203905081811115611dc257611dc1611d02565b5b92915050565b7f4e487b7100000000000000000000000000000000000000000000000000000000600052603260045260246000fd5b6000611e0282611732565b91507fffffffffffffffffffffffffffffffffffffffffffffffffffffffffffffffff8203611e3457611e33611d02565b5b600182019050919050565b7f496e76616c696420636f6c6c65637461626c6520696400000000000000000000600082015250565b6000611e756016836117a0565b9150611e8082611e3f565b602082019050919050565b60006020820190508181036000830152611ea481611e68565b9050919050565b7f596f7520646f6e2774206861766520656e6f75676820446567656e20746f6b6560008201527f6e7320746f206275726e00000000000000000000000000000000000000000000602082015250565b6000611f07602a836117a0565b9150611f1282611eab565b604082019050919050565b60006020820190508181036000830152611f3681611efa565b9050919050565b7f536f7272792c204e6f7420656e6f75676820446567656e20746f6b656e73206160008201527f7661696c61626c65000000000000000000000000000000000000000000000000602082015250565b6000611f996028836117a0565b9150611fa482611f3d565b604082019050919050565b60006020820190508181036000830152611fc881611f8c565b9050919050565b7f45524332303a2064656372656173656420616c6c6f77616e63652062656c6f7760008201527f207a65726f000000000000000000000000000000000000000000000000000000602082015250565b600061202b6025836117a0565b915061203682611fcf565b604082019050919050565b6000602082019050818103600083015261205a8161201e565b9050919050565b7f4f776e61626c653a206e6577206f776e657220697320746865207a65726f206160008201527f6464726573730000000000000000000000000000000000000000000000000000602082015250565b60006120bd6026836117a0565b91506120c882612061565b604082019050919050565b600060208201905081810360008301526120ec816120b0565b9050919050565b7f45524332303a206275726e2066726f6d20746865207a65726f2061646472657360008201527f7300000000000000000000000000000000000000000000000000000000000000602082015250565b600061214f6021836117a0565b915061215a826120f3565b604082019050919050565b6000602082019050818103600083015261217e81612142565b9050919050565b7f45524332303a206275726e20616d6f756e7420657863656564732062616c616e60008201527f6365000000000000000000000000000000000000000000000000000000000000602082015250565b60006121e16022836117a0565b91506121ec82612185565b604082019050919050565b60006020820190508181036000830152612210816121d4565b9050919050565b7f45524332303a20617070726f76652066726f6d20746865207a65726f2061646460008201527f7265737300000000000000000000000000000000000000000000000000000000602082015250565b60006122736024836117a0565b915061227e82612217565b604082019050919050565b600060208201905081810360008301526122a281612266565b9050919050565b7f45524332303a20617070726f766520746f20746865207a65726f20616464726560008201527f7373000000000000000000000000000000000000000000000000000000000000602082015250565b60006123056022836117a0565b9150612310826122a9565b604082019050919050565b60006020820190508181036000830152612334816122f8565b9050919050565b7f45524332303a20696e73756666696369656e7420616c6c6f77616e6365000000600082015250565b6000612371601d836117a0565b915061237c8261233b565b602082019050919050565b600060208201905081810360008301526123a081612364565b9050919050565b7f45524332303a207472616e736665722066726f6d20746865207a65726f20616460008201527f6472657373000000000000000000000000000000000000000000000000000000602082015250565b60006124036025836117a0565b915061240e826123a7565b604082019050919050565b60006020820190508181036000830152612432816123f6565b9050919050565b7f45524332303a207472616e7366657220746f20746865207a65726f206164647260008201527f6573730000000000000000000000000000000000000000000000000000000000602082015250565b60006124956023836117a0565b91506124a082612439565b604082019050919050565b600060208201905081810360008301526124c481612488565b9050919050565b7f45524332303a207472616e7366657220616d6f756e742065786365656473206260008201527f616c616e63650000000000000000000000000000000000000000000000000000602082015250565b60006125276026836117a0565b9150612532826124cb565b604082019050919050565b600060208201905081810360008301526125568161251a565b9050919050565b7f4f776e61626c653a2063616c6c6572206973206e6f7420746865206f776e6572600082015250565b60006125936020836117a0565b915061259e8261255d565b602082019050919050565b600060208201905081810360008301526125c281612586565b9050919050565b7f45524332303a206d696e7420746f20746865207a65726f206164647265737300600082015250565b60006125ff601f836117a0565b915061260a826125c9565b602082019050919050565b6000602082019050818103600083015261262e816125f2565b905091905056fea2646970667358221220381bef4df912d991fe0bd1d051d2ad85afa48d47300ec606cef392b27e89f30464736f6c63430008120033",
  "linkReferences": {},
  "deployedLinkReferences": {}
}